{
  "_format": "hh-sol-artifact-1",
  "contractName": "Transactions",
  "sourceName": "contracts/Transactions.sol",
  "abi": [
    {
      "anonymous": false,
      "inputs": [
        {
          "indexed": false,
          "internalType": "address",
          "name": "from",
          "type": "address"
        },
        {
          "indexed": false,
          "internalType": "address",
          "name": "reciever",
          "type": "address"
        },
        {
          "indexed": false,
          "internalType": "uint256",
          "name": "amount",
          "type": "uint256"
        },
        {
          "indexed": false,
          "internalType": "string",
          "name": "message",
          "type": "string"
        },
        {
          "indexed": false,
          "internalType": "uint256",
          "name": "timestamp",
          "type": "uint256"
        },
        {
          "indexed": false,
          "internalType": "string",
          "name": "keyword",
          "type": "string"
        }
      ],
      "name": "Transfer",
      "type": "event"
    },
    {
      "inputs": [
        {
          "internalType": "address payable",
          "name": "reciever",
          "type": "address"
        },
        {
          "internalType": "uint256",
          "name": "amount",
          "type": "uint256"
        },
        {
          "internalType": "string",
          "name": "message",
          "type": "string"
        },
        {
          "internalType": "string",
          "name": "keyword",
          "type": "string"
        }
      ],
      "name": "addToBlockChain",
      "outputs": [],
      "stateMutability": "nonpayable",
      "type": "function"
    },
    {
      "inputs": [],
      "name": "getAllTransaction",
      "outputs": [
        {
          "components": [
            {
              "internalType": "address",
              "name": "sender",
              "type": "address"
            },
            {
              "internalType": "address",
              "name": "reciever",
              "type": "address"
            },
            {
              "internalType": "uint256",
              "name": "amount",
              "type": "uint256"
            },
            {
              "internalType": "string",
              "name": "message",
              "type": "string"
            },
            {
              "internalType": "uint256",
              "name": "timestamp",
              "type": "uint256"
            },
            {
              "internalType": "string",
              "name": "keyword",
              "type": "string"
            }
          ],
          "internalType": "struct Transactions.TransferStruct[]",
          "name": "",
          "type": "tuple[]"
        }
      ],
      "stateMutability": "view",
      "type": "function"
    },
    {
      "inputs": [],
      "name": "getTransactionCount",
      "outputs": [
        {
          "internalType": "uint256",
          "name": "",
          "type": "uint256"
        }
      ],
      "stateMutability": "view",
      "type": "function"
    }
  ],
  "bytecode": "0x608060405234801561001057600080fd5b50610e08806100206000396000f3fe608060405234801561001057600080fd5b50600436106100415760003560e01c80632e7700f014610046578063add6415d14610064578063b2da096014610082575b600080fd5b61004e61009e565b60405161005b91906104b3565b60405180910390f35b61006c6100a3565b6040516100799190610700565b60405180910390f35b61009c600480360381019061009791906108d5565b6102e6565b005b600090565b60606001805480602002602001604051908101604052809291908181526020016000905b828210156102dd57838290600052602060002090600602016040518060c00160405290816000820160009054906101000a900473ffffffffffffffffffffffffffffffffffffffff1673ffffffffffffffffffffffffffffffffffffffff1673ffffffffffffffffffffffffffffffffffffffff1681526020016001820160009054906101000a900473ffffffffffffffffffffffffffffffffffffffff1673ffffffffffffffffffffffffffffffffffffffff1673ffffffffffffffffffffffffffffffffffffffff168152602001600282015481526020016003820180546101b0906109a3565b80601f01602080910402602001604051908101604052809291908181526020018280546101dc906109a3565b80156102295780601f106101fe57610100808354040283529160200191610229565b820191906000526020600020905b81548152906001019060200180831161020c57829003601f168201915b505050505081526020016004820154815260200160058201805461024c906109a3565b80601f0160208091040260200160405190810160405280929190818152602001828054610278906109a3565b80156102c55780601f1061029a576101008083540402835291602001916102c5565b820191906000526020600020905b8154815290600101906020018083116102a857829003601f168201915b505050505081525050815260200190600101906100c7565b50505050905090565b60016000808282546102f89190610a03565b9250508190555060016040518060c001604052803373ffffffffffffffffffffffffffffffffffffffff1681526020018673ffffffffffffffffffffffffffffffffffffffff16815260200185815260200184815260200142815260200183815250908060018154018082558091505060019003906000526020600020906006020160009091909190915060008201518160000160006101000a81548173ffffffffffffffffffffffffffffffffffffffff021916908373ffffffffffffffffffffffffffffffffffffffff16021790555060208201518160010160006101000a81548173ffffffffffffffffffffffffffffffffffffffff021916908373ffffffffffffffffffffffffffffffffffffffff1602179055506040820151816002015560608201518160030190816104309190610be3565b506080820151816004015560a08201518160050190816104509190610be3565b5050507f416cfa4330a4565f45c2fd2dd4826a83a37443aba2ce6f79477c7355afac35fa33858585428660405161048c96959493929190610d63565b60405180910390a150505050565b6000819050919050565b6104ad8161049a565b82525050565b60006020820190506104c860008301846104a4565b92915050565b600081519050919050565b600082825260208201905092915050565b6000819050602082019050919050565b600073ffffffffffffffffffffffffffffffffffffffff82169050919050565b6000610525826104fa565b9050919050565b6105358161051a565b82525050565b6105448161049a565b82525050565b600081519050919050565b600082825260208201905092915050565b60005b83811015610584578082015181840152602081019050610569565b60008484015250505050565b6000601f19601f8301169050919050565b60006105ac8261054a565b6105b68185610555565b93506105c6818560208601610566565b6105cf81610590565b840191505092915050565b600060c0830160008301516105f2600086018261052c565b506020830151610605602086018261052c565b506040830151610618604086018261053b565b506060830151848203606086015261063082826105a1565b9150506080830151610645608086018261053b565b5060a083015184820360a086015261065d82826105a1565b9150508091505092915050565b600061067683836105da565b905092915050565b6000602082019050919050565b6000610696826104ce565b6106a081856104d9565b9350836020820285016106b2856104ea565b8060005b858110156106ee57848403895281516106cf858261066a565b94506106da8361067e565b925060208a019950506001810190506106b6565b50829750879550505050505092915050565b6000602082019050818103600083015261071a818461068b565b905092915050565b6000604051905090565b600080fd5b600080fd5b6000610741826104fa565b9050919050565b61075181610736565b811461075c57600080fd5b50565b60008135905061076e81610748565b92915050565b61077d8161049a565b811461078857600080fd5b50565b60008135905061079a81610774565b92915050565b600080fd5b600080fd5b7f4e487b7100000000000000000000000000000000000000000000000000000000600052604160045260246000fd5b6107e282610590565b810181811067ffffffffffffffff82111715610801576108006107aa565b5b80604052505050565b6000610814610722565b905061082082826107d9565b919050565b600067ffffffffffffffff8211156108405761083f6107aa565b5b61084982610590565b9050602081019050919050565b82818337600083830152505050565b600061087861087384610825565b61080a565b905082815260208101848484011115610894576108936107a5565b5b61089f848285610856565b509392505050565b600082601f8301126108bc576108bb6107a0565b5b81356108cc848260208601610865565b91505092915050565b600080600080608085870312156108ef576108ee61072c565b5b60006108fd8782880161075f565b945050602061090e8782880161078b565b935050604085013567ffffffffffffffff81111561092f5761092e610731565b5b61093b878288016108a7565b925050606085013567ffffffffffffffff81111561095c5761095b610731565b5b610968878288016108a7565b91505092959194509250565b7f4e487b7100000000000000000000000000000000000000000000000000000000600052602260045260246000fd5b600060028204905060018216806109bb57607f821691505b6020821081036109ce576109cd610974565b5b50919050565b7f4e487b7100000000000000000000000000000000000000000000000000000000600052601160045260246000fd5b6000610a0e8261049a565b9150610a198361049a565b9250828201905080821115610a3157610a306109d4565b5b92915050565b60008190508160005260206000209050919050565b60006020601f8301049050919050565b600082821b905092915050565b600060088302610a997fffffffffffffffffffffffffffffffffffffffffffffffffffffffffffffffff82610a5c565b610aa38683610a5c565b95508019841693508086168417925050509392505050565b6000819050919050565b6000610ae0610adb610ad68461049a565b610abb565b61049a565b9050919050565b6000819050919050565b610afa83610ac5565b610b0e610b0682610ae7565b848454610a69565b825550505050565b600090565b610b23610b16565b610b2e818484610af1565b505050565b5b81811015610b5257610b47600082610b1b565b600181019050610b34565b5050565b601f821115610b9757610b6881610a37565b610b7184610a4c565b81016020851015610b80578190505b610b94610b8c85610a4c565b830182610b33565b50505b505050565b600082821c905092915050565b6000610bba60001984600802610b9c565b1980831691505092915050565b6000610bd38383610ba9565b9150826002028217905092915050565b610bec8261054a565b67ffffffffffffffff811115610c0557610c046107aa565b5b610c0f82546109a3565b610c1a828285610b56565b600060209050601f831160018114610c4d5760008415610c3b578287015190505b610c458582610bc7565b865550610cad565b601f198416610c5b86610a37565b60005b82811015610c8357848901518255600182019150602085019450602081019050610c5e565b86831015610ca05784890151610c9c601f891682610ba9565b8355505b6001600288020188555050505b505050505050565b610cbe8161051a565b82525050565b6000610cdf610cda610cd5846104fa565b610abb565b6104fa565b9050919050565b6000610cf182610cc4565b9050919050565b6000610d0382610ce6565b9050919050565b610d1381610cf8565b82525050565b600082825260208201905092915050565b6000610d358261054a565b610d3f8185610d19565b9350610d4f818560208601610566565b610d5881610590565b840191505092915050565b600060c082019050610d786000830189610cb5565b610d856020830188610d0a565b610d9260408301876104a4565b8181036060830152610da48186610d2a565b9050610db360808301856104a4565b81810360a0830152610dc58184610d2a565b905097965050505050505056fea2646970667358221220e857464dce54913e33d3509111e233b94a6443075b3e8196a4b233b4d04d199b64736f6c63430008110033",
  "linkReferences": {},
  "deployedLinkReferences": {}
}